{
  "contractName": "LoyaltyPointExchange",
  "abi": [
    {
      "inputs": [],
      "stateMutability": "nonpayable",
      "type": "constructor"
    },
    {
      "anonymous": false,
      "inputs": [
        {
          "indexed": true,
          "internalType": "uint256",
          "name": "itemId",
          "type": "uint256"
        },
        {
          "indexed": false,
          "internalType": "string",
          "name": "name",
          "type": "string"
        },
        {
          "indexed": true,
          "internalType": "address",
          "name": "merchant",
          "type": "address"
        }
      ],
      "name": "ItemAdded",
      "type": "event"
    },
    {
      "anonymous": false,
      "inputs": [
        {
          "indexed": true,
          "internalType": "uint256",
          "name": "itemId",
          "type": "uint256"
        },
        {
          "indexed": true,
          "internalType": "address",
          "name": "buyer",
          "type": "address"
        },
        {
          "indexed": true,
          "internalType": "address",
          "name": "merchant",
          "type": "address"
        },
        {
          "indexed": false,
          "internalType": "string",
          "name": "method",
          "type": "string"
        }
      ],
      "name": "ItemPurchased",
      "type": "event"
    },
    {
      "anonymous": false,
      "inputs": [
        {
          "indexed": true,
          "internalType": "address",
          "name": "merchant",
          "type": "address"
        },
        {
          "indexed": false,
          "internalType": "string",
          "name": "name",
          "type": "string"
        }
      ],
      "name": "MerchantApproved",
      "type": "event"
    },
    {
      "anonymous": false,
      "inputs": [
        {
          "indexed": true,
          "internalType": "address",
          "name": "merchant",
          "type": "address"
        }
      ],
      "name": "MerchantRequested",
      "type": "event"
    },
    {
      "anonymous": false,
      "inputs": [
        {
          "indexed": false,
          "internalType": "uint256",
          "name": "newFeePercent",
          "type": "uint256"
        }
      ],
      "name": "PlatformFeeUpdated",
      "type": "event"
    },
    {
      "anonymous": false,
      "inputs": [
        {
          "indexed": true,
          "internalType": "address",
          "name": "merchant",
          "type": "address"
        },
        {
          "indexed": false,
          "internalType": "uint256",
          "name": "amount",
          "type": "uint256"
        }
      ],
      "name": "PointsRedeemed",
      "type": "event"
    },
    {
      "anonymous": false,
      "inputs": [
        {
          "indexed": true,
          "internalType": "address",
          "name": "user",
          "type": "address"
        }
      ],
      "name": "UserRegistered",
      "type": "event"
    },
    {
      "inputs": [
        {
          "internalType": "address",
          "name": "",
          "type": "address"
        }
      ],
      "name": "etherBalance",
      "outputs": [
        {
          "internalType": "uint256",
          "name": "",
          "type": "uint256"
        }
      ],
      "stateMutability": "view",
      "type": "function",
      "constant": true
    },
    {
      "inputs": [
        {
          "internalType": "uint256",
          "name": "",
          "type": "uint256"
        }
      ],
      "name": "items",
      "outputs": [
        {
          "internalType": "uint256",
          "name": "id",
          "type": "uint256"
        },
        {
          "internalType": "string",
          "name": "name",
          "type": "string"
        },
        {
          "internalType": "uint256",
          "name": "priceInEther",
          "type": "uint256"
        },
        {
          "internalType": "uint256",
          "name": "priceInPoints",
          "type": "uint256"
        },
        {
          "internalType": "address",
          "name": "merchant",
          "type": "address"
        },
        {
          "internalType": "bool",
          "name": "exists",
          "type": "bool"
        }
      ],
      "stateMutability": "view",
      "type": "function",
      "constant": true
    },
    {
      "inputs": [
        {
          "internalType": "address",
          "name": "",
          "type": "address"
        }
      ],
      "name": "loyaltyPoints",
      "outputs": [
        {
          "internalType": "uint256",
          "name": "",
          "type": "uint256"
        }
      ],
      "stateMutability": "view",
      "type": "function",
      "constant": true
    },
    {
      "inputs": [
        {
          "internalType": "address",
          "name": "",
          "type": "address"
        }
      ],
      "name": "merchantNames",
      "outputs": [
        {
          "internalType": "string",
          "name": "",
          "type": "string"
        }
      ],
      "stateMutability": "view",
      "type": "function",
      "constant": true
    },
    {
      "inputs": [
        {
          "internalType": "address",
          "name": "",
          "type": "address"
        }
      ],
      "name": "merchantRequests",
      "outputs": [
        {
          "internalType": "address",
          "name": "merchantAddress",
          "type": "address"
        },
        {
          "internalType": "bool",
          "name": "approved",
          "type": "bool"
        }
      ],
      "stateMutability": "view",
      "type": "function",
      "constant": true
    },
    {
      "inputs": [],
      "name": "nextItemId",
      "outputs": [
        {
          "internalType": "uint256",
          "name": "",
          "type": "uint256"
        }
      ],
      "stateMutability": "view",
      "type": "function",
      "constant": true
    },
    {
      "inputs": [],
      "name": "owner",
      "outputs": [
        {
          "internalType": "address",
          "name": "",
          "type": "address"
        }
      ],
      "stateMutability": "view",
      "type": "function",
      "constant": true
    },
    {
      "inputs": [],
      "name": "platformFeePercent",
      "outputs": [
        {
          "internalType": "uint256",
          "name": "",
          "type": "uint256"
        }
      ],
      "stateMutability": "view",
      "type": "function",
      "constant": true
    },
    {
      "inputs": [
        {
          "internalType": "address",
          "name": "",
          "type": "address"
        }
      ],
      "name": "roles",
      "outputs": [
        {
          "internalType": "enum LoyaltyPointExchange.Role",
          "name": "",
          "type": "uint8"
        }
      ],
      "stateMutability": "view",
      "type": "function",
      "constant": true
    },
    {
      "inputs": [
        {
          "internalType": "address",
          "name": "",
          "type": "address"
        }
      ],
      "name": "userNames",
      "outputs": [
        {
          "internalType": "string",
          "name": "",
          "type": "string"
        }
      ],
      "stateMutability": "view",
      "type": "function",
      "constant": true
    },
    {
      "stateMutability": "payable",
      "type": "receive",
      "payable": true
    },
    {
      "inputs": [
        {
          "internalType": "string",
          "name": "_name",
          "type": "string"
        }
      ],
      "name": "registerUser",
      "outputs": [],
      "stateMutability": "nonpayable",
      "type": "function"
    },
    {
      "inputs": [],
      "name": "requestMerchantAccess",
      "outputs": [],
      "stateMutability": "nonpayable",
      "type": "function"
    },
    {
      "inputs": [
        {
          "internalType": "address",
          "name": "merchant",
          "type": "address"
        },
        {
          "internalType": "string",
          "name": "name",
          "type": "string"
        }
      ],
      "name": "approveMerchant",
      "outputs": [],
      "stateMutability": "nonpayable",
      "type": "function"
    },
    {
      "inputs": [
        {
          "internalType": "string",
          "name": "name",
          "type": "string"
        },
        {
          "internalType": "uint256",
          "name": "priceInEther",
          "type": "uint256"
        },
        {
          "internalType": "uint256",
          "name": "priceInPoints",
          "type": "uint256"
        }
      ],
      "name": "addItem",
      "outputs": [],
      "stateMutability": "nonpayable",
      "type": "function"
    },
    {
      "inputs": [
        {
          "internalType": "uint256",
          "name": "itemId",
          "type": "uint256"
        }
      ],
      "name": "purchaseItemWithEther",
      "outputs": [],
      "stateMutability": "payable",
      "type": "function",
      "payable": true
    },
    {
      "inputs": [
        {
          "internalType": "uint256",
          "name": "itemId",
          "type": "uint256"
        }
      ],
      "name": "purchaseItemWithPoints",
      "outputs": [],
      "stateMutability": "nonpayable",
      "type": "function"
    },
    {
      "inputs": [
        {
          "internalType": "uint256",
          "name": "amount",
          "type": "uint256"
        }
      ],
      "name": "redeemPointsForEther",
      "outputs": [],
      "stateMutability": "nonpayable",
      "type": "function"
    },
    {
      "inputs": [
        {
          "internalType": "uint256",
          "name": "newFeePercent",
          "type": "uint256"
        }
      ],
      "name": "updatePlatformFee",
      "outputs": [],
      "stateMutability": "nonpayable",
      "type": "function"
    },
    {
      "inputs": [],
      "name": "getMyRole",
      "outputs": [
        {
          "internalType": "enum LoyaltyPointExchange.Role",
          "name": "",
          "type": "uint8"
        }
      ],
      "stateMutability": "view",
      "type": "function",
      "constant": true
    },
    {
      "inputs": [
        {
          "internalType": "address",
          "name": "merchant",
          "type": "address"
        }
      ],
      "name": "getMerchantName",
      "outputs": [
        {
          "internalType": "string",
          "name": "",
          "type": "string"
        }
      ],
      "stateMutability": "view",
      "type": "function",
      "constant": true
    }
  ],
  "bytecode": "0x608060405260026009553480156200001657600080fd5b50336000806101000a81548173ffffffffffffffffffffffffffffffffffffffff021916908373ffffffffffffffffffffffffffffffffffffffff16021790555060028060003373ffffffffffffffffffffffffffffffffffffffff1673ffffffffffffffffffffffffffffffffffffffff16815260200190815260200160002060006101000a81548160ff02191690836002811115620000e0577f4e487b7100000000000000000000000000000000000000000000000000000000600052602160045260246000fd5b02179055506040518060400160405280600581526020017f41646d696e000000000000000000000000000000000000000000000000000000815250600360003373ffffffffffffffffffffffffffffffffffffffff1673ffffffffffffffffffffffffffffffffffffffff16815260200190815260200160002090805190602001906200016f92919062000176565b506200028b565b828054620001849062000226565b90600052602060002090601f016020900481019282620001a85760008555620001f4565b82601f10620001c357805160ff1916838001178555620001f4565b82800160010185558215620001f4579182015b82811115620001f3578251825591602001919060010190620001d6565b5b50905062000203919062000207565b5090565b5b808211156200022257600081600090555060010162000208565b5090565b600060028204905060018216806200023f57607f821691505b602082108114156200025657620002556200025c565b5b50919050565b7f4e487b7100000000000000000000000000000000000000000000000000000000600052602260045260246000fd5b612b7c806200029b6000396000f3fe6080604052600436106101225760003560e01c80638c639a85116100a0578063aa0b598811610064578063aa0b5988146103e3578063bfb231d21461040c578063cd0c58961461044e578063d45e42591461048b578063d5e6c333146104c857610129565b80638c639a851461030b5780638da5cb5b146103365780639937464214610361578063a11d6e341461039e578063a80b24dc146103ba57610129565b80636e3b47fc116100e75780636e3b47fc146101ff578063704f1b941461022a5780637392e7d2146102535780637f281635146102905780638802e4ab146102cd57610129565b8062c620261461012e5780630a040aee146101455780631f155a511461016e578063453ed13e146101975780636a868974146101d457610129565b3661012957005b600080fd5b34801561013a57600080fd5b506101436104f1565b005b34801561015157600080fd5b5061016c60048036038101906101679190612104565b61070c565b005b34801561017a57600080fd5b5061019560048036038101906101909190612008565b6109d5565b005b3480156101a357600080fd5b506101be60048036038101906101b99190611fdf565b610c81565b6040516101cb9190612527565b60405180910390f35b3480156101e057600080fd5b506101e9610d21565b6040516101f691906126c9565b60405180910390f35b34801561020b57600080fd5b50610214610d27565b604051610221919061250c565b60405180910390f35b34801561023657600080fd5b50610251600480360381019061024c919061205c565b610d7b565b005b34801561025f57600080fd5b5061027a60048036038101906102759190611fdf565b610fa2565b6040516102879190612527565b60405180910390f35b34801561029c57600080fd5b506102b760048036038101906102b29190611fdf565b611073565b6040516102c49190612527565b60405180910390f35b3480156102d957600080fd5b506102f460048036038101906102ef9190611fdf565b611113565b6040516103029291906124e3565b60405180910390f35b34801561031757600080fd5b50610320611164565b60405161032d91906126c9565b60405180910390f35b34801561034257600080fd5b5061034b61116a565b60405161035891906124c8565b60405180910390f35b34801561036d57600080fd5b5061038860048036038101906103839190611fdf565b61118e565b604051610395919061250c565b60405180910390f35b6103b860048036038101906103b39190612104565b6111ae565b005b3480156103c657600080fd5b506103e160048036038101906103dc9190612104565b6115d8565b005b3480156103ef57600080fd5b5061040a60048036038101906104059190612104565b611a08565b005b34801561041857600080fd5b50610433600480360381019061042e9190612104565b611b1b565b604051610445969594939291906126e4565b60405180910390f35b34801561045a57600080fd5b5061047560048036038101906104709190611fdf565b611c0c565b60405161048291906126c9565b60405180910390f35b34801561049757600080fd5b506104b260048036038101906104ad9190611fdf565b611c24565b6040516104bf91906126c9565b60405180910390f35b3480156104d457600080fd5b506104ef60048036038101906104ea919061209d565b611c3c565b005b6000600281111561052b577f4e487b7100000000000000000000000000000000000000000000000000000000600052602160045260246000fd5b600260003373ffffffffffffffffffffffffffffffffffffffff1673ffffffffffffffffffffffffffffffffffffffff16815260200190815260200160002060009054906101000a900460ff1660028111156105b0577f4e487b7100000000000000000000000000000000000000000000000000000000600052602160045260246000fd5b146105f0576040517f08c379a00000000000000000000000000000000000000000000000000000000081526004016105e7906125e9565b60405180910390fd5b60405180604001604052803373ffffffffffffffffffffffffffffffffffffffff16815260200160001515815250600660003373ffffffffffffffffffffffffffffffffffffffff1673ffffffffffffffffffffffffffffffffffffffff16815260200190815260200160002060008201518160000160006101000a81548173ffffffffffffffffffffffffffffffffffffffff021916908373ffffffffffffffffffffffffffffffffffffffff16021790555060208201518160000160146101000a81548160ff0219169083151502179055509050503373ffffffffffffffffffffffffffffffffffffffff167f41567b414fb2bef59de8575605dd07edd9564999a8ffa09d9687d873873c767e60405160405180910390a2565b600280811115610745577f4e487b7100000000000000000000000000000000000000000000000000000000600052602160045260246000fd5b600260003373ffffffffffffffffffffffffffffffffffffffff1673ffffffffffffffffffffffffffffffffffffffff16815260200190815260200160002060009054906101000a900460ff1660028111156107ca577f4e487b7100000000000000000000000000000000000000000000000000000000600052602160045260246000fd5b1461080a576040517f08c379a000000000000000000000000000000000000000000000000000000000815260040161080190612569565b60405180910390fd5b80600460003373ffffffffffffffffffffffffffffffffffffffff1673ffffffffffffffffffffffffffffffffffffffff16815260200190815260200160002054101561088c576040517f08c379a000000000000000000000000000000000000000000000000000000000815260040161088390612669565b60405180910390fd5b600066038d7ea4c68000826108a19190612850565b9050804710156108e6576040517f08c379a00000000000000000000000000000000000000000000000000000000081526004016108dd90612609565b60405180910390fd5b81600460003373ffffffffffffffffffffffffffffffffffffffff1673ffffffffffffffffffffffffffffffffffffffff168152602001908152602001600020600082825461093591906128aa565b925050819055503373ffffffffffffffffffffffffffffffffffffffff166108fc829081150290604051600060405180830381858888f19350505050158015610982573d6000803e3d6000fd5b503373ffffffffffffffffffffffffffffffffffffffff167fc37df5d14f305277c1289e9a188a097cda6684189c95f785feb056cb77a8c910836040516109c991906126c9565b60405180910390a25050565b60008054906101000a900473ffffffffffffffffffffffffffffffffffffffff1673ffffffffffffffffffffffffffffffffffffffff163373ffffffffffffffffffffffffffffffffffffffff1614610a63576040517f08c379a0000000000000000000000000000000000000000000000000000000008152600401610a5a90612689565b60405180910390fd5b600660008373ffffffffffffffffffffffffffffffffffffffff1673ffffffffffffffffffffffffffffffffffffffff16815260200190815260200160002060000160149054906101000a900460ff1615610af3576040517f08c379a0000000000000000000000000000000000000000000000000000000008152600401610aea90612549565b60405180910390fd5b6001600660008473ffffffffffffffffffffffffffffffffffffffff1673ffffffffffffffffffffffffffffffffffffffff16815260200190815260200160002060000160146101000a81548160ff02191690831515021790555060028060008473ffffffffffffffffffffffffffffffffffffffff1673ffffffffffffffffffffffffffffffffffffffff16815260200190815260200160002060006101000a81548160ff02191690836002811115610bd6577f4e487b7100000000000000000000000000000000000000000000000000000000600052602160045260246000fd5b021790555080600360008473ffffffffffffffffffffffffffffffffffffffff1673ffffffffffffffffffffffffffffffffffffffff1681526020019081526020016000209080519060200190610c2e929190611eaa565b508173ffffffffffffffffffffffffffffffffffffffff167f3597d3df6c72ca37af63387856d09ae5779ffab4723d05a45663215bea928de682604051610c759190612527565b60405180910390a25050565b60036020528060005260406000206000915090508054610ca09061298d565b80601f0160208091040260200160405190810160405280929190818152602001828054610ccc9061298d565b8015610d195780601f10610cee57610100808354040283529160200191610d19565b820191906000526020600020905b815481529060010190602001808311610cfc57829003601f168201915b505050505081565b60085481565b6000600260003373ffffffffffffffffffffffffffffffffffffffff1673ffffffffffffffffffffffffffffffffffffffff16815260200190815260200160002060009054906101000a900460ff16905090565b60006002811115610db5577f4e487b7100000000000000000000000000000000000000000000000000000000600052602160045260246000fd5b600260003373ffffffffffffffffffffffffffffffffffffffff1673ffffffffffffffffffffffffffffffffffffffff16815260200190815260200160002060009054906101000a900460ff166002811115610e3a577f4e487b7100000000000000000000000000000000000000000000000000000000600052602160045260246000fd5b14610e7a576040517f08c379a0000000000000000000000000000000000000000000000000000000008152600401610e71906125e9565b60405180910390fd5b6001600260003373ffffffffffffffffffffffffffffffffffffffff1673ffffffffffffffffffffffffffffffffffffffff16815260200190815260200160002060006101000a81548160ff02191690836002811115610f03577f4e487b7100000000000000000000000000000000000000000000000000000000600052602160045260246000fd5b021790555080600160003373ffffffffffffffffffffffffffffffffffffffff1673ffffffffffffffffffffffffffffffffffffffff1681526020019081526020016000209080519060200190610f5b929190611eaa565b503373ffffffffffffffffffffffffffffffffffffffff167f54db7a5cb4735e1aac1f53db512d3390390bb6637bd30ad4bf9fc98667d9b9b960405160405180910390a250565b6060600360008373ffffffffffffffffffffffffffffffffffffffff1673ffffffffffffffffffffffffffffffffffffffff1681526020019081526020016000208054610fee9061298d565b80601f016020809104026020016040519081016040528092919081815260200182805461101a9061298d565b80156110675780601f1061103c57610100808354040283529160200191611067565b820191906000526020600020905b81548152906001019060200180831161104a57829003601f168201915b50505050509050919050565b600160205280600052604060002060009150905080546110929061298d565b80601f01602080910402602001604051908101604052809291908181526020018280546110be9061298d565b801561110b5780601f106110e05761010080835404028352916020019161110b565b820191906000526020600020905b8154815290600101906020018083116110ee57829003601f168201915b505050505081565b60066020528060005260406000206000915090508060000160009054906101000a900473ffffffffffffffffffffffffffffffffffffffff16908060000160149054906101000a900460ff16905082565b60095481565b60008054906101000a900473ffffffffffffffffffffffffffffffffffffffff1681565b60026020528060005260406000206000915054906101000a900460ff1681565b600160028111156111e8577f4e487b7100000000000000000000000000000000000000000000000000000000600052602160045260246000fd5b600260003373ffffffffffffffffffffffffffffffffffffffff1673ffffffffffffffffffffffffffffffffffffffff16815260200190815260200160002060009054906101000a900460ff16600281111561126d577f4e487b7100000000000000000000000000000000000000000000000000000000600052602160045260246000fd5b146112ad576040517f08c379a00000000000000000000000000000000000000000000000000000000081526004016112a490612589565b60405180910390fd5b6000600760008381526020019081526020016000206040518060c0016040529081600082015481526020016001820180546112e79061298d565b80601f01602080910402602001604051908101604052809291908181526020018280546113139061298d565b80156113605780601f1061133557610100808354040283529160200191611360565b820191906000526020600020905b81548152906001019060200180831161134357829003601f168201915b5050505050815260200160028201548152602001600382015481526020016004820160009054906101000a900473ffffffffffffffffffffffffffffffffffffffff1673ffffffffffffffffffffffffffffffffffffffff1673ffffffffffffffffffffffffffffffffffffffff1681526020016004820160149054906101000a900460ff16151515158152505090508060a00151611434576040517f08c379a000000000000000000000000000000000000000000000000000000000815260040161142b90612629565b60405180910390fd5b8060400151341461147a576040517f08c379a0000000000000000000000000000000000000000000000000000000008152600401611471906126a9565b60405180910390fd5b600060646009543461148c9190612850565b611496919061281f565b9050600081346114a691906128aa565b9050826080015173ffffffffffffffffffffffffffffffffffffffff166108fc829081150290604051600060405180830381858888f193505050501580156114f2573d6000803e3d6000fd5b5081600560008060009054906101000a900473ffffffffffffffffffffffffffffffffffffffff1673ffffffffffffffffffffffffffffffffffffffff1673ffffffffffffffffffffffffffffffffffffffff168152602001908152602001600020600082825461156391906127c9565b92505081905550826080015173ffffffffffffffffffffffffffffffffffffffff163373ffffffffffffffffffffffffffffffffffffffff16857ff4a756a6dfa0f8c608a571ab3a4118eac89a9bcf342a165fd9cd5594e1d76cef6040516115ca90612649565b60405180910390a450505050565b60016002811115611612577f4e487b7100000000000000000000000000000000000000000000000000000000600052602160045260246000fd5b600260003373ffffffffffffffffffffffffffffffffffffffff1673ffffffffffffffffffffffffffffffffffffffff16815260200190815260200160002060009054906101000a900460ff166002811115611697577f4e487b7100000000000000000000000000000000000000000000000000000000600052602160045260246000fd5b146116d7576040517f08c379a00000000000000000000000000000000000000000000000000000000081526004016116ce90612589565b60405180910390fd5b6000600760008381526020019081526020016000206040518060c0016040529081600082015481526020016001820180546117119061298d565b80601f016020809104026020016040519081016040528092919081815260200182805461173d9061298d565b801561178a5780601f1061175f5761010080835404028352916020019161178a565b820191906000526020600020905b81548152906001019060200180831161176d57829003601f168201915b5050505050815260200160028201548152602001600382015481526020016004820160009054906101000a900473ffffffffffffffffffffffffffffffffffffffff1673ffffffffffffffffffffffffffffffffffffffff1673ffffffffffffffffffffffffffffffffffffffff1681526020016004820160149054906101000a900460ff16151515158152505090508060a0015161185e576040517f08c379a000000000000000000000000000000000000000000000000000000000815260040161185590612629565b60405180910390fd5b8060600151600460003373ffffffffffffffffffffffffffffffffffffffff1673ffffffffffffffffffffffffffffffffffffffff1681526020019081526020016000205410156118e4576040517f08c379a00000000000000000000000000000000000000000000000000000000081526004016118db90612669565b60405180910390fd5b8060600151600460003373ffffffffffffffffffffffffffffffffffffffff1673ffffffffffffffffffffffffffffffffffffffff168152602001908152602001600020600082825461193791906128aa565b92505081905550806060015160046000836080015173ffffffffffffffffffffffffffffffffffffffff1673ffffffffffffffffffffffffffffffffffffffff168152602001908152602001600020600082825461199591906127c9565b92505081905550806080015173ffffffffffffffffffffffffffffffffffffffff163373ffffffffffffffffffffffffffffffffffffffff16837ff4a756a6dfa0f8c608a571ab3a4118eac89a9bcf342a165fd9cd5594e1d76cef6040516119fc906125a9565b60405180910390a45050565b60008054906101000a900473ffffffffffffffffffffffffffffffffffffffff1673ffffffffffffffffffffffffffffffffffffffff163373ffffffffffffffffffffffffffffffffffffffff1614611a96576040517f08c379a0000000000000000000000000000000000000000000000000000000008152600401611a8d90612689565b60405180910390fd5b600a811115611ada576040517f08c379a0000000000000000000000000000000000000000000000000000000008152600401611ad1906125c9565b60405180910390fd5b806009819055507f45610d581145924dd7090a5017e5f2b1d6f42213bb2e95707ff86846bbfcb1ca81604051611b1091906126c9565b60405180910390a150565b6007602052806000526040600020600091509050806000015490806001018054611b449061298d565b80601f0160208091040260200160405190810160405280929190818152602001828054611b709061298d565b8015611bbd5780601f10611b9257610100808354040283529160200191611bbd565b820191906000526020600020905b815481529060010190602001808311611ba057829003601f168201915b5050505050908060020154908060030154908060040160009054906101000a900473ffffffffffffffffffffffffffffffffffffffff16908060040160149054906101000a900460ff16905086565b60056020528060005260406000206000915090505481565b60046020528060005260406000206000915090505481565b600280811115611c75577f4e487b7100000000000000000000000000000000000000000000000000000000600052602160045260246000fd5b600260003373ffffffffffffffffffffffffffffffffffffffff1673ffffffffffffffffffffffffffffffffffffffff16815260200190815260200160002060009054906101000a900460ff166002811115611cfa577f4e487b7100000000000000000000000000000000000000000000000000000000600052602160045260246000fd5b14611d3a576040517f08c379a0000000000000000000000000000000000000000000000000000000008152600401611d3190612569565b60405180910390fd5b6040518060c0016040528060085481526020018481526020018381526020018281526020013373ffffffffffffffffffffffffffffffffffffffff16815260200160011515815250600760006008548152602001908152602001600020600082015181600001556020820151816001019080519060200190611dbd929190611eaa565b50604082015181600201556060820151816003015560808201518160040160006101000a81548173ffffffffffffffffffffffffffffffffffffffff021916908373ffffffffffffffffffffffffffffffffffffffff16021790555060a08201518160040160146101000a81548160ff0219169083151502179055509050503373ffffffffffffffffffffffffffffffffffffffff166008547fd880714edee31fb5e11bdcbe063a2ac4280471bf225be293f3bf11bdadac2dbb85604051611e859190612527565b60405180910390a360086000815480929190611ea0906129bf565b9190505550505050565b828054611eb69061298d565b90600052602060002090601f016020900481019282611ed85760008555611f1f565b82601f10611ef157805160ff1916838001178555611f1f565b82800160010185558215611f1f579182015b82811115611f1e578251825591602001919060010190611f03565b5b509050611f2c9190611f30565b5090565b5b80821115611f49576000816000905550600101611f31565b5090565b6000611f60611f5b8461277d565b61274c565b905082815260208101848484011115611f7857600080fd5b611f8384828561294b565b509392505050565b600081359050611f9a81612b18565b92915050565b600082601f830112611fb157600080fd5b8135611fc1848260208601611f4d565b91505092915050565b600081359050611fd981612b2f565b92915050565b600060208284031215611ff157600080fd5b6000611fff84828501611f8b565b91505092915050565b6000806040838503121561201b57600080fd5b600061202985828601611f8b565b925050602083013567ffffffffffffffff81111561204657600080fd5b61205285828601611fa0565b9150509250929050565b60006020828403121561206e57600080fd5b600082013567ffffffffffffffff81111561208857600080fd5b61209484828501611fa0565b91505092915050565b6000806000606084860312156120b257600080fd5b600084013567ffffffffffffffff8111156120cc57600080fd5b6120d886828701611fa0565b93505060206120e986828701611fca565b92505060406120fa86828701611fca565b9150509250925092565b60006020828403121561211657600080fd5b600061212484828501611fca565b91505092915050565b612136816128de565b82525050565b612145816128f0565b82525050565b61215481612939565b82525050565b6000612165826127ad565b61216f81856127b8565b935061217f81856020860161295a565b61218881612af3565b840191505092915050565b60006121a06010836127b8565b91507f416c726561647920617070726f766564000000000000000000000000000000006000830152602082019050919050565b60006121e06015836127b8565b91507f4f6e6c79206d65726368616e7420616c6c6f77656400000000000000000000006000830152602082019050919050565b60006122206011836127b8565b91507f4f6e6c79207573657220616c6c6f7765640000000000000000000000000000006000830152602082019050919050565b60006122606006836127b8565b91507f506f696e747300000000000000000000000000000000000000000000000000006000830152602082019050919050565b60006122a0600c836127b8565b91507f46656520746f6f206869676800000000000000000000000000000000000000006000830152602082019050919050565b60006122e06012836127b8565b91507f416c7265616479207265676973746572656400000000000000000000000000006000830152602082019050919050565b60006123206014836127b8565b91507f436f6e7472616374206c61636b732045746865720000000000000000000000006000830152602082019050919050565b6000612360600e836127b8565b91507f4974656d206e6f7420666f756e640000000000000000000000000000000000006000830152602082019050919050565b60006123a06005836127b8565b91507f45746865720000000000000000000000000000000000000000000000000000006000830152602082019050919050565b60006123e06013836127b8565b91507f496e73756666696369656e7420706f696e7473000000000000000000000000006000830152602082019050919050565b60006124206022836127b8565b91507f4f6e6c79206f776e65722063616e20706572666f726d2074686973206163746960008301527f6f6e0000000000000000000000000000000000000000000000000000000000006020830152604082019050919050565b60006124866015836127b8565b91507f496e636f72726563742045746865722076616c756500000000000000000000006000830152602082019050919050565b6124c28161292f565b82525050565b60006020820190506124dd600083018461212d565b92915050565b60006040820190506124f8600083018561212d565b612505602083018461213c565b9392505050565b6000602082019050612521600083018461214b565b92915050565b60006020820190508181036000830152612541818461215a565b905092915050565b6000602082019050818103600083015261256281612193565b9050919050565b60006020820190508181036000830152612582816121d3565b9050919050565b600060208201905081810360008301526125a281612213565b9050919050565b600060208201905081810360008301526125c281612253565b9050919050565b600060208201905081810360008301526125e281612293565b9050919050565b60006020820190508181036000830152612602816122d3565b9050919050565b6000602082019050818103600083015261262281612313565b9050919050565b6000602082019050818103600083015261264281612353565b9050919050565b6000602082019050818103600083015261266281612393565b9050919050565b60006020820190508181036000830152612682816123d3565b9050919050565b600060208201905081810360008301526126a281612413565b9050919050565b600060208201905081810360008301526126c281612479565b9050919050565b60006020820190506126de60008301846124b9565b92915050565b600060c0820190506126f960008301896124b9565b818103602083015261270b818861215a565b905061271a60408301876124b9565b61272760608301866124b9565b612734608083018561212d565b61274160a083018461213c565b979650505050505050565b6000604051905081810181811067ffffffffffffffff8211171561277357612772612ac4565b5b8060405250919050565b600067ffffffffffffffff82111561279857612797612ac4565b5b601f19601f8301169050602081019050919050565b600081519050919050565b600082825260208201905092915050565b60006127d48261292f565b91506127df8361292f565b9250827fffffffffffffffffffffffffffffffffffffffffffffffffffffffffffffffff0382111561281457612813612a08565b5b828201905092915050565b600061282a8261292f565b91506128358361292f565b92508261284557612844612a37565b5b828204905092915050565b600061285b8261292f565b91506128668361292f565b9250817fffffffffffffffffffffffffffffffffffffffffffffffffffffffffffffffff048311821515161561289f5761289e612a08565b5b828202905092915050565b60006128b58261292f565b91506128c08361292f565b9250828210156128d3576128d2612a08565b5b828203905092915050565b60006128e98261290f565b9050919050565b60008115159050919050565b600081905061290a82612b04565b919050565b600073ffffffffffffffffffffffffffffffffffffffff82169050919050565b6000819050919050565b6000612944826128fc565b9050919050565b82818337600083830152505050565b60005b8381101561297857808201518184015260208101905061295d565b83811115612987576000848401525b50505050565b600060028204905060018216806129a557607f821691505b602082108114156129b9576129b8612a95565b5b50919050565b60006129ca8261292f565b91507fffffffffffffffffffffffffffffffffffffffffffffffffffffffffffffffff8214156129fd576129fc612a08565b5b600182019050919050565b7f4e487b7100000000000000000000000000000000000000000000000000000000600052601160045260246000fd5b7f4e487b7100000000000000000000000000000000000000000000000000000000600052601260045260246000fd5b7f4e487b7100000000000000000000000000000000000000000000000000000000600052602160045260246000fd5b7f4e487b7100000000000000000000000000000000000000000000000000000000600052602260045260246000fd5b7f4e487b7100000000000000000000000000000000000000000000000000000000600052604160045260246000fd5b6000601f19601f8301169050919050565b60038110612b1557612b14612a66565b5b50565b612b21816128de565b8114612b2c57600080fd5b50565b612b388161292f565b8114612b4357600080fd5b5056fea2646970667358221220240e460d8725ecc181e3aa999faa49bc9fa5238dcde2cd6ea2710963c565aa5b64736f6c63430008000033",
  "immutableReferences": {},
  "source": "// SPDX-License-Identifier: MIT\npragma solidity ^0.8.0;\n\ncontract LoyaltyPointExchange {\n    address public owner;\n\n    enum Role { None, User, Merchant }\n\n    struct MerchantRequest {\n        address merchantAddress;\n        bool approved;\n    }\n\n    struct Item {\n        uint id;\n        string name;\n        uint priceInEther;\n        uint priceInPoints;\n        address merchant;\n        bool exists;\n    }\n\n    mapping(address => string) public userNames;\n    mapping(address => Role) public roles;\n    mapping(address => string) public merchantNames;\n    mapping(address => uint) public loyaltyPoints;\n    mapping(address => uint) public etherBalance;\n    mapping(address => MerchantRequest) public merchantRequests;\n    mapping(uint => Item) public items;\n\n    uint public nextItemId;\n    uint public platformFeePercent = 2;\n\n    event MerchantRequested(address indexed merchant);\n    event MerchantApproved(address indexed merchant, string name);\n    event UserRegistered(address indexed user);\n    event ItemAdded(uint indexed itemId, string name, address indexed merchant);\n    event ItemPurchased(uint indexed itemId, address indexed buyer, address indexed merchant, string method);\n    event PointsRedeemed(address indexed merchant, uint amount);\n    event PlatformFeeUpdated(uint newFeePercent);\n\n    modifier onlyOwner() {\n        require(msg.sender == owner, \"Only owner can perform this action\");\n        _;\n    }\n\n    modifier onlyMerchant() {\n        require(roles[msg.sender] == Role.Merchant, \"Only merchant allowed\");\n        _;\n    }\n\n    modifier onlyUser() {\n        require(roles[msg.sender] == Role.User, \"Only user allowed\");\n        _;\n    }\n\n    constructor() {\n        owner = msg.sender;\n        roles[msg.sender] = Role.Merchant;\n        merchantNames[msg.sender] = \"Admin\";\n    }\n\n    function registerUser(string memory _name) external {\n    require(roles[msg.sender] == Role.None, \"Already registered\");\n    roles[msg.sender] = Role.User;\n    userNames[msg.sender] = _name;\n    emit UserRegistered(msg.sender);\n}\n\n\n    function requestMerchantAccess() external {\n        require(roles[msg.sender] == Role.None, \"Already registered\");\n        merchantRequests[msg.sender] = MerchantRequest(msg.sender, false);\n        emit MerchantRequested(msg.sender);\n    }\n\n    function approveMerchant(address merchant, string memory name) external onlyOwner {\n        require(!merchantRequests[merchant].approved, \"Already approved\");\n        merchantRequests[merchant].approved = true;\n        roles[merchant] = Role.Merchant;\n        merchantNames[merchant] = name;\n        emit MerchantApproved(merchant, name);\n    }\n\n    function addItem(string memory name, uint priceInEther, uint priceInPoints) external onlyMerchant {\n        items[nextItemId] = Item(nextItemId, name, priceInEther, priceInPoints, msg.sender, true);\n        emit ItemAdded(nextItemId, name, msg.sender);\n        nextItemId++;\n    }\n\n    function purchaseItemWithEther(uint itemId) external payable onlyUser {\n        Item memory item = items[itemId];\n        require(item.exists, \"Item not found\");\n        require(msg.value == item.priceInEther, \"Incorrect Ether value\");\n\n        uint fee = (msg.value * platformFeePercent) / 100;\n        uint amountToMerchant = msg.value - fee;\n\n        payable(item.merchant).transfer(amountToMerchant);\n        etherBalance[owner] += fee;\n\n        emit ItemPurchased(itemId, msg.sender, item.merchant, \"Ether\");\n    }\n\n    function purchaseItemWithPoints(uint itemId) external onlyUser {\n        Item memory item = items[itemId];\n        require(item.exists, \"Item not found\");\n        require(loyaltyPoints[msg.sender] >= item.priceInPoints, \"Insufficient points\");\n\n        loyaltyPoints[msg.sender] -= item.priceInPoints;\n        loyaltyPoints[item.merchant] += item.priceInPoints;\n\n        emit ItemPurchased(itemId, msg.sender, item.merchant, \"Points\");\n    }\n\n    function redeemPointsForEther(uint amount) external onlyMerchant {\n        require(loyaltyPoints[msg.sender] >= amount, \"Insufficient points\");\n\n        uint etherAmount = amount * 1e15;\n        require(address(this).balance >= etherAmount, \"Contract lacks Ether\");\n\n        loyaltyPoints[msg.sender] -= amount;\n        payable(msg.sender).transfer(etherAmount);\n\n        emit PointsRedeemed(msg.sender, amount);\n    }\n\n    function updatePlatformFee(uint newFeePercent) external onlyOwner {\n        require(newFeePercent <= 10, \"Fee too high\");\n        platformFeePercent = newFeePercent;\n        emit PlatformFeeUpdated(newFeePercent);\n    }\n\n    function getMyRole() external view returns (Role) {\n        return roles[msg.sender];\n    }\n\n    function getMerchantName(address merchant) external view returns (string memory) {\n        return merchantNames[merchant];\n    }\n\n    receive() external payable {}\n} \n",
  "sourcePath": "/home/sayalijaitapkar/loyalty-point-exchange/contracts/LoyaltyPointExchange.sol",
  "compiler": {
    "name": "solc",
    "version": "0.8.0+commit.c7dfd78e.Emscripten.clang"
  },
  "schemaVersion": "3.4.16",
  "updatedAt": "2025-04-22T23:45:04.903Z",
  "networkType": "ethereum",
  "devdoc": {
    "kind": "dev",
    "methods": {},
    "version": 1
  },
  "userdoc": {
    "kind": "user",
    "methods": {},
    "version": 1
  }
}