{
  "contractName": "LoyaltyPointExchange",
  "abi": [
    {
      "inputs": [],
      "stateMutability": "nonpayable",
      "type": "constructor"
    },
    {
      "anonymous": false,
      "inputs": [
        {
          "indexed": true,
          "internalType": "uint256",
          "name": "itemId",
          "type": "uint256"
        },
        {
          "indexed": false,
          "internalType": "string",
          "name": "name",
          "type": "string"
        },
        {
          "indexed": true,
          "internalType": "address",
          "name": "merchant",
          "type": "address"
        }
      ],
      "name": "ItemAdded",
      "type": "event"
    },
    {
      "anonymous": false,
      "inputs": [
        {
          "indexed": true,
          "internalType": "uint256",
          "name": "itemId",
          "type": "uint256"
        },
        {
          "indexed": true,
          "internalType": "address",
          "name": "buyer",
          "type": "address"
        },
        {
          "indexed": true,
          "internalType": "address",
          "name": "merchant",
          "type": "address"
        },
        {
          "indexed": false,
          "internalType": "string",
          "name": "method",
          "type": "string"
        }
      ],
      "name": "ItemPurchased",
      "type": "event"
    },
    {
      "anonymous": false,
      "inputs": [
        {
          "indexed": true,
          "internalType": "address",
          "name": "merchant",
          "type": "address"
        }
      ],
      "name": "MerchantApproved",
      "type": "event"
    },
    {
      "anonymous": false,
      "inputs": [
        {
          "indexed": true,
          "internalType": "address",
          "name": "merchant",
          "type": "address"
        }
      ],
      "name": "MerchantRequested",
      "type": "event"
    },
    {
      "anonymous": false,
      "inputs": [
        {
          "indexed": false,
          "internalType": "uint256",
          "name": "newFeePercent",
          "type": "uint256"
        }
      ],
      "name": "PlatformFeeUpdated",
      "type": "event"
    },
    {
      "anonymous": false,
      "inputs": [
        {
          "indexed": true,
          "internalType": "address",
          "name": "merchant",
          "type": "address"
        },
        {
          "indexed": false,
          "internalType": "uint256",
          "name": "amount",
          "type": "uint256"
        }
      ],
      "name": "PointsRedeemed",
      "type": "event"
    },
    {
      "anonymous": false,
      "inputs": [
        {
          "indexed": true,
          "internalType": "address",
          "name": "user",
          "type": "address"
        }
      ],
      "name": "UserRegistered",
      "type": "event"
    },
    {
      "inputs": [
        {
          "internalType": "address",
          "name": "",
          "type": "address"
        }
      ],
      "name": "etherBalance",
      "outputs": [
        {
          "internalType": "uint256",
          "name": "",
          "type": "uint256"
        }
      ],
      "stateMutability": "view",
      "type": "function",
      "constant": true
    },
    {
      "inputs": [
        {
          "internalType": "uint256",
          "name": "",
          "type": "uint256"
        }
      ],
      "name": "items",
      "outputs": [
        {
          "internalType": "uint256",
          "name": "id",
          "type": "uint256"
        },
        {
          "internalType": "string",
          "name": "name",
          "type": "string"
        },
        {
          "internalType": "uint256",
          "name": "priceInEther",
          "type": "uint256"
        },
        {
          "internalType": "uint256",
          "name": "priceInPoints",
          "type": "uint256"
        },
        {
          "internalType": "address",
          "name": "merchant",
          "type": "address"
        },
        {
          "internalType": "bool",
          "name": "exists",
          "type": "bool"
        }
      ],
      "stateMutability": "view",
      "type": "function",
      "constant": true
    },
    {
      "inputs": [
        {
          "internalType": "address",
          "name": "",
          "type": "address"
        }
      ],
      "name": "loyaltyPoints",
      "outputs": [
        {
          "internalType": "uint256",
          "name": "",
          "type": "uint256"
        }
      ],
      "stateMutability": "view",
      "type": "function",
      "constant": true
    },
    {
      "inputs": [
        {
          "internalType": "address",
          "name": "",
          "type": "address"
        }
      ],
      "name": "merchantRequests",
      "outputs": [
        {
          "internalType": "address",
          "name": "merchantAddress",
          "type": "address"
        },
        {
          "internalType": "bool",
          "name": "approved",
          "type": "bool"
        }
      ],
      "stateMutability": "view",
      "type": "function",
      "constant": true
    },
    {
      "inputs": [],
      "name": "nextItemId",
      "outputs": [
        {
          "internalType": "uint256",
          "name": "",
          "type": "uint256"
        }
      ],
      "stateMutability": "view",
      "type": "function",
      "constant": true
    },
    {
      "inputs": [],
      "name": "owner",
      "outputs": [
        {
          "internalType": "address",
          "name": "",
          "type": "address"
        }
      ],
      "stateMutability": "view",
      "type": "function",
      "constant": true
    },
    {
      "inputs": [],
      "name": "platformFeePercent",
      "outputs": [
        {
          "internalType": "uint256",
          "name": "",
          "type": "uint256"
        }
      ],
      "stateMutability": "view",
      "type": "function",
      "constant": true
    },
    {
      "inputs": [
        {
          "internalType": "address",
          "name": "",
          "type": "address"
        }
      ],
      "name": "roles",
      "outputs": [
        {
          "internalType": "enum LoyaltyPointExchange.Role",
          "name": "",
          "type": "uint8"
        }
      ],
      "stateMutability": "view",
      "type": "function",
      "constant": true
    },
    {
      "stateMutability": "payable",
      "type": "receive",
      "payable": true
    },
    {
      "inputs": [],
      "name": "selfRegister",
      "outputs": [],
      "stateMutability": "nonpayable",
      "type": "function"
    },
    {
      "inputs": [],
      "name": "requestMerchantAccess",
      "outputs": [],
      "stateMutability": "nonpayable",
      "type": "function"
    },
    {
      "inputs": [
        {
          "internalType": "address",
          "name": "merchant",
          "type": "address"
        }
      ],
      "name": "approveMerchant",
      "outputs": [],
      "stateMutability": "nonpayable",
      "type": "function"
    },
    {
      "inputs": [
        {
          "internalType": "string",
          "name": "name",
          "type": "string"
        },
        {
          "internalType": "uint256",
          "name": "priceInEther",
          "type": "uint256"
        },
        {
          "internalType": "uint256",
          "name": "priceInPoints",
          "type": "uint256"
        }
      ],
      "name": "addItem",
      "outputs": [],
      "stateMutability": "nonpayable",
      "type": "function"
    },
    {
      "inputs": [
        {
          "internalType": "uint256",
          "name": "itemId",
          "type": "uint256"
        }
      ],
      "name": "purchaseItemWithEther",
      "outputs": [],
      "stateMutability": "payable",
      "type": "function",
      "payable": true
    },
    {
      "inputs": [
        {
          "internalType": "uint256",
          "name": "itemId",
          "type": "uint256"
        }
      ],
      "name": "purchaseItemWithPoints",
      "outputs": [],
      "stateMutability": "nonpayable",
      "type": "function"
    },
    {
      "inputs": [
        {
          "internalType": "uint256",
          "name": "amount",
          "type": "uint256"
        }
      ],
      "name": "redeemPointsForEther",
      "outputs": [],
      "stateMutability": "nonpayable",
      "type": "function"
    },
    {
      "inputs": [
        {
          "internalType": "uint256",
          "name": "newFeePercent",
          "type": "uint256"
        }
      ],
      "name": "updatePlatformFee",
      "outputs": [],
      "stateMutability": "nonpayable",
      "type": "function"
    }
  ],
  "bytecode": "0x6080604052600260075534801561001557600080fd5b50336000806101000a81548173ffffffffffffffffffffffffffffffffffffffff021916908373ffffffffffffffffffffffffffffffffffffffff16021790555060018060003373ffffffffffffffffffffffffffffffffffffffff1673ffffffffffffffffffffffffffffffffffffffff16815260200190815260200160002060006101000a81548160ff021916908360028111156100de577f4e487b7100000000000000000000000000000000000000000000000000000000600052602160045260246000fd5b02179055506126ad806100f26000396000f3fe6080604052600436106100f65760003560e01c8063a80b24dc1161008a578063d45e425911610059578063d45e42591461032b578063d5e6c33314610368578063d86a28bb14610391578063fa298d79146103a8576100fd565b8063a80b24dc1461025a578063aa0b598814610283578063bfb231d2146102ac578063cd0c5896146102ee576100fd565b80638c639a85116100c65780638c639a85146101ab5780638da5cb5b146101d65780639937464214610201578063a11d6e341461023e576100fd565b8062c62026146101025780630a040aee146101195780636a868974146101425780638802e4ab1461016d576100fd565b366100fd57005b600080fd5b34801561010e57600080fd5b506101176103d1565b005b34801561012557600080fd5b50610140600480360381019061013b9190611c35565b6105ec565b005b34801561014e57600080fd5b506101576108b5565b60405161016491906121fa565b60405180910390f35b34801561017957600080fd5b50610194600480360381019061018f9190611ba5565b6108bb565b6040516101a2929190612014565b60405180910390f35b3480156101b757600080fd5b506101c061090c565b6040516101cd91906121fa565b60405180910390f35b3480156101e257600080fd5b506101eb610912565b6040516101f89190611ff9565b60405180910390f35b34801561020d57600080fd5b5061022860048036038101906102239190611ba5565b610936565b604051610235919061203d565b60405180910390f35b61025860048036038101906102539190611c35565b610956565b005b34801561026657600080fd5b50610281600480360381019061027c9190611c35565b610d80565b005b34801561028f57600080fd5b506102aa60048036038101906102a59190611c35565b6111b0565b005b3480156102b857600080fd5b506102d360048036038101906102ce9190611c35565b6112c3565b6040516102e596959493929190612215565b60405180910390f35b3480156102fa57600080fd5b5061031560048036038101906103109190611ba5565b6113b4565b60405161032291906121fa565b60405180910390f35b34801561033757600080fd5b50610352600480360381019061034d9190611ba5565b6113cc565b60405161035f91906121fa565b60405180910390f35b34801561037457600080fd5b5061038f600480360381019061038a9190611bce565b6113e4565b005b34801561039d57600080fd5b506103a6611652565b005b3480156103b457600080fd5b506103cf60048036038101906103ca9190611ba5565b611823565b005b6000600281111561040b577f4e487b7100000000000000000000000000000000000000000000000000000000600052602160045260246000fd5b600160003373ffffffffffffffffffffffffffffffffffffffff1673ffffffffffffffffffffffffffffffffffffffff16815260200190815260200160002060009054906101000a900460ff166002811115610490577f4e487b7100000000000000000000000000000000000000000000000000000000600052602160045260246000fd5b146104d0576040517f08c379a00000000000000000000000000000000000000000000000000000000081526004016104c79061211a565b60405180910390fd5b60405180604001604052803373ffffffffffffffffffffffffffffffffffffffff16815260200160001515815250600460003373ffffffffffffffffffffffffffffffffffffffff1673ffffffffffffffffffffffffffffffffffffffff16815260200190815260200160002060008201518160000160006101000a81548173ffffffffffffffffffffffffffffffffffffffff021916908373ffffffffffffffffffffffffffffffffffffffff16021790555060208201518160000160146101000a81548160ff0219169083151502179055509050503373ffffffffffffffffffffffffffffffffffffffff167f41567b414fb2bef59de8575605dd07edd9564999a8ffa09d9687d873873c767e60405160405180910390a2565b600280811115610625577f4e487b7100000000000000000000000000000000000000000000000000000000600052602160045260246000fd5b600160003373ffffffffffffffffffffffffffffffffffffffff1673ffffffffffffffffffffffffffffffffffffffff16815260200190815260200160002060009054906101000a900460ff1660028111156106aa577f4e487b7100000000000000000000000000000000000000000000000000000000600052602160045260246000fd5b146106ea576040517f08c379a00000000000000000000000000000000000000000000000000000000081526004016106e19061209a565b60405180910390fd5b80600260003373ffffffffffffffffffffffffffffffffffffffff1673ffffffffffffffffffffffffffffffffffffffff16815260200190815260200160002054101561076c576040517f08c379a00000000000000000000000000000000000000000000000000000000081526004016107639061219a565b60405180910390fd5b600066038d7ea4c68000826107819190612381565b9050804710156107c6576040517f08c379a00000000000000000000000000000000000000000000000000000000081526004016107bd9061213a565b60405180910390fd5b81600260003373ffffffffffffffffffffffffffffffffffffffff1673ffffffffffffffffffffffffffffffffffffffff168152602001908152602001600020600082825461081591906123db565b925050819055503373ffffffffffffffffffffffffffffffffffffffff166108fc829081150290604051600060405180830381858888f19350505050158015610862573d6000803e3d6000fd5b503373ffffffffffffffffffffffffffffffffffffffff167fc37df5d14f305277c1289e9a188a097cda6684189c95f785feb056cb77a8c910836040516108a991906121fa565b60405180910390a25050565b60065481565b60046020528060005260406000206000915090508060000160009054906101000a900473ffffffffffffffffffffffffffffffffffffffff16908060000160149054906101000a900460ff16905082565b60075481565b60008054906101000a900473ffffffffffffffffffffffffffffffffffffffff1681565b60016020528060005260406000206000915054906101000a900460ff1681565b60016002811115610990577f4e487b7100000000000000000000000000000000000000000000000000000000600052602160045260246000fd5b600160003373ffffffffffffffffffffffffffffffffffffffff1673ffffffffffffffffffffffffffffffffffffffff16815260200190815260200160002060009054906101000a900460ff166002811115610a15577f4e487b7100000000000000000000000000000000000000000000000000000000600052602160045260246000fd5b14610a55576040517f08c379a0000000000000000000000000000000000000000000000000000000008152600401610a4c906120ba565b60405180910390fd5b6000600560008381526020019081526020016000206040518060c001604052908160008201548152602001600182018054610a8f906124be565b80601f0160208091040260200160405190810160405280929190818152602001828054610abb906124be565b8015610b085780601f10610add57610100808354040283529160200191610b08565b820191906000526020600020905b815481529060010190602001808311610aeb57829003601f168201915b5050505050815260200160028201548152602001600382015481526020016004820160009054906101000a900473ffffffffffffffffffffffffffffffffffffffff1673ffffffffffffffffffffffffffffffffffffffff1673ffffffffffffffffffffffffffffffffffffffff1681526020016004820160149054906101000a900460ff16151515158152505090508060a00151610bdc576040517f08c379a0000000000000000000000000000000000000000000000000000000008152600401610bd39061215a565b60405180910390fd5b80604001513414610c22576040517f08c379a0000000000000000000000000000000000000000000000000000000008152600401610c19906121da565b60405180910390fd5b6000606460075434610c349190612381565b610c3e9190612350565b905060008134610c4e91906123db565b9050826080015173ffffffffffffffffffffffffffffffffffffffff166108fc829081150290604051600060405180830381858888f19350505050158015610c9a573d6000803e3d6000fd5b5081600360008060009054906101000a900473ffffffffffffffffffffffffffffffffffffffff1673ffffffffffffffffffffffffffffffffffffffff1673ffffffffffffffffffffffffffffffffffffffff1681526020019081526020016000206000828254610d0b91906122fa565b92505081905550826080015173ffffffffffffffffffffffffffffffffffffffff163373ffffffffffffffffffffffffffffffffffffffff16857ff4a756a6dfa0f8c608a571ab3a4118eac89a9bcf342a165fd9cd5594e1d76cef604051610d729061217a565b60405180910390a450505050565b60016002811115610dba577f4e487b7100000000000000000000000000000000000000000000000000000000600052602160045260246000fd5b600160003373ffffffffffffffffffffffffffffffffffffffff1673ffffffffffffffffffffffffffffffffffffffff16815260200190815260200160002060009054906101000a900460ff166002811115610e3f577f4e487b7100000000000000000000000000000000000000000000000000000000600052602160045260246000fd5b14610e7f576040517f08c379a0000000000000000000000000000000000000000000000000000000008152600401610e76906120ba565b60405180910390fd5b6000600560008381526020019081526020016000206040518060c001604052908160008201548152602001600182018054610eb9906124be565b80601f0160208091040260200160405190810160405280929190818152602001828054610ee5906124be565b8015610f325780601f10610f0757610100808354040283529160200191610f32565b820191906000526020600020905b815481529060010190602001808311610f1557829003601f168201915b5050505050815260200160028201548152602001600382015481526020016004820160009054906101000a900473ffffffffffffffffffffffffffffffffffffffff1673ffffffffffffffffffffffffffffffffffffffff1673ffffffffffffffffffffffffffffffffffffffff1681526020016004820160149054906101000a900460ff16151515158152505090508060a00151611006576040517f08c379a0000000000000000000000000000000000000000000000000000000008152600401610ffd9061215a565b60405180910390fd5b8060600151600260003373ffffffffffffffffffffffffffffffffffffffff1673ffffffffffffffffffffffffffffffffffffffff16815260200190815260200160002054101561108c576040517f08c379a00000000000000000000000000000000000000000000000000000000081526004016110839061219a565b60405180910390fd5b8060600151600260003373ffffffffffffffffffffffffffffffffffffffff1673ffffffffffffffffffffffffffffffffffffffff16815260200190815260200160002060008282546110df91906123db565b92505081905550806060015160026000836080015173ffffffffffffffffffffffffffffffffffffffff1673ffffffffffffffffffffffffffffffffffffffff168152602001908152602001600020600082825461113d91906122fa565b92505081905550806080015173ffffffffffffffffffffffffffffffffffffffff163373ffffffffffffffffffffffffffffffffffffffff16837ff4a756a6dfa0f8c608a571ab3a4118eac89a9bcf342a165fd9cd5594e1d76cef6040516111a4906120da565b60405180910390a45050565b60008054906101000a900473ffffffffffffffffffffffffffffffffffffffff1673ffffffffffffffffffffffffffffffffffffffff163373ffffffffffffffffffffffffffffffffffffffff161461123e576040517f08c379a0000000000000000000000000000000000000000000000000000000008152600401611235906121ba565b60405180910390fd5b600a811115611282576040517f08c379a0000000000000000000000000000000000000000000000000000000008152600401611279906120fa565b60405180910390fd5b806007819055507f45610d581145924dd7090a5017e5f2b1d6f42213bb2e95707ff86846bbfcb1ca816040516112b891906121fa565b60405180910390a150565b60056020528060005260406000206000915090508060000154908060010180546112ec906124be565b80601f0160208091040260200160405190810160405280929190818152602001828054611318906124be565b80156113655780601f1061133a57610100808354040283529160200191611365565b820191906000526020600020905b81548152906001019060200180831161134857829003601f168201915b5050505050908060020154908060030154908060040160009054906101000a900473ffffffffffffffffffffffffffffffffffffffff16908060040160149054906101000a900460ff16905086565b60036020528060005260406000206000915090505481565b60026020528060005260406000206000915090505481565b60028081111561141d577f4e487b7100000000000000000000000000000000000000000000000000000000600052602160045260246000fd5b600160003373ffffffffffffffffffffffffffffffffffffffff1673ffffffffffffffffffffffffffffffffffffffff16815260200190815260200160002060009054906101000a900460ff1660028111156114a2577f4e487b7100000000000000000000000000000000000000000000000000000000600052602160045260246000fd5b146114e2576040517f08c379a00000000000000000000000000000000000000000000000000000000081526004016114d99061209a565b60405180910390fd5b6040518060c0016040528060065481526020018481526020018381526020018281526020013373ffffffffffffffffffffffffffffffffffffffff16815260200160011515815250600560006006548152602001908152602001600020600082015181600001556020820151816001019080519060200190611565929190611a70565b50604082015181600201556060820151816003015560808201518160040160006101000a81548173ffffffffffffffffffffffffffffffffffffffff021916908373ffffffffffffffffffffffffffffffffffffffff16021790555060a08201518160040160146101000a81548160ff0219169083151502179055509050503373ffffffffffffffffffffffffffffffffffffffff166006547fd880714edee31fb5e11bdcbe063a2ac4280471bf225be293f3bf11bdadac2dbb8560405161162d9190612058565b60405180910390a360066000815480929190611648906124f0565b9190505550505050565b6000600281111561168c577f4e487b7100000000000000000000000000000000000000000000000000000000600052602160045260246000fd5b600160003373ffffffffffffffffffffffffffffffffffffffff1673ffffffffffffffffffffffffffffffffffffffff16815260200190815260200160002060009054906101000a900460ff166002811115611711577f4e487b7100000000000000000000000000000000000000000000000000000000600052602160045260246000fd5b14611751576040517f08c379a00000000000000000000000000000000000000000000000000000000081526004016117489061211a565b60405180910390fd5b60018060003373ffffffffffffffffffffffffffffffffffffffff1673ffffffffffffffffffffffffffffffffffffffff16815260200190815260200160002060006101000a81548160ff021916908360028111156117d9577f4e487b7100000000000000000000000000000000000000000000000000000000600052602160045260246000fd5b02179055503373ffffffffffffffffffffffffffffffffffffffff167f54db7a5cb4735e1aac1f53db512d3390390bb6637bd30ad4bf9fc98667d9b9b960405160405180910390a2565b60008054906101000a900473ffffffffffffffffffffffffffffffffffffffff1673ffffffffffffffffffffffffffffffffffffffff163373ffffffffffffffffffffffffffffffffffffffff16146118b1576040517f08c379a00000000000000000000000000000000000000000000000000000000081526004016118a8906121ba565b60405180910390fd5b600460008273ffffffffffffffffffffffffffffffffffffffff1673ffffffffffffffffffffffffffffffffffffffff16815260200190815260200160002060000160149054906101000a900460ff1615611941576040517f08c379a00000000000000000000000000000000000000000000000000000000081526004016119389061207a565b60405180910390fd5b6001600460008373ffffffffffffffffffffffffffffffffffffffff1673ffffffffffffffffffffffffffffffffffffffff16815260200190815260200160002060000160146101000a81548160ff0219169083151502179055506002600160008373ffffffffffffffffffffffffffffffffffffffff1673ffffffffffffffffffffffffffffffffffffffff16815260200190815260200160002060006101000a81548160ff02191690836002811115611a25577f4e487b7100000000000000000000000000000000000000000000000000000000600052602160045260246000fd5b02179055508073ffffffffffffffffffffffffffffffffffffffff167f7eac6d166cc8ca73ea01ee26570ba10a123aee0b6b272b5ace7880cc918ab6c660405160405180910390a250565b828054611a7c906124be565b90600052602060002090601f016020900481019282611a9e5760008555611ae5565b82601f10611ab757805160ff1916838001178555611ae5565b82800160010185558215611ae5579182015b82811115611ae4578251825591602001919060010190611ac9565b5b509050611af29190611af6565b5090565b5b80821115611b0f576000816000905550600101611af7565b5090565b6000611b26611b21846122ae565b61227d565b905082815260208101848484011115611b3e57600080fd5b611b4984828561247c565b509392505050565b600081359050611b6081612649565b92915050565b600082601f830112611b7757600080fd5b8135611b87848260208601611b13565b91505092915050565b600081359050611b9f81612660565b92915050565b600060208284031215611bb757600080fd5b6000611bc584828501611b51565b91505092915050565b600080600060608486031215611be357600080fd5b600084013567ffffffffffffffff811115611bfd57600080fd5b611c0986828701611b66565b9350506020611c1a86828701611b90565b9250506040611c2b86828701611b90565b9150509250925092565b600060208284031215611c4757600080fd5b6000611c5584828501611b90565b91505092915050565b611c678161240f565b82525050565b611c7681612421565b82525050565b611c858161246a565b82525050565b6000611c96826122de565b611ca081856122e9565b9350611cb081856020860161248b565b611cb981612624565b840191505092915050565b6000611cd16010836122e9565b91507f416c726561647920617070726f766564000000000000000000000000000000006000830152602082019050919050565b6000611d116015836122e9565b91507f4f6e6c79206d65726368616e7420616c6c6f77656400000000000000000000006000830152602082019050919050565b6000611d516011836122e9565b91507f4f6e6c79207573657220616c6c6f7765640000000000000000000000000000006000830152602082019050919050565b6000611d916006836122e9565b91507f506f696e747300000000000000000000000000000000000000000000000000006000830152602082019050919050565b6000611dd1600c836122e9565b91507f46656520746f6f206869676800000000000000000000000000000000000000006000830152602082019050919050565b6000611e116012836122e9565b91507f416c7265616479207265676973746572656400000000000000000000000000006000830152602082019050919050565b6000611e516014836122e9565b91507f436f6e7472616374206c61636b732045746865720000000000000000000000006000830152602082019050919050565b6000611e91600e836122e9565b91507f4974656d206e6f7420666f756e640000000000000000000000000000000000006000830152602082019050919050565b6000611ed16005836122e9565b91507f45746865720000000000000000000000000000000000000000000000000000006000830152602082019050919050565b6000611f116013836122e9565b91507f496e73756666696369656e7420706f696e7473000000000000000000000000006000830152602082019050919050565b6000611f516022836122e9565b91507f4f6e6c79206f776e65722063616e20706572666f726d2074686973206163746960008301527f6f6e0000000000000000000000000000000000000000000000000000000000006020830152604082019050919050565b6000611fb76015836122e9565b91507f496e636f72726563742045746865722076616c756500000000000000000000006000830152602082019050919050565b611ff381612460565b82525050565b600060208201905061200e6000830184611c5e565b92915050565b60006040820190506120296000830185611c5e565b6120366020830184611c6d565b9392505050565b60006020820190506120526000830184611c7c565b92915050565b600060208201905081810360008301526120728184611c8b565b905092915050565b6000602082019050818103600083015261209381611cc4565b9050919050565b600060208201905081810360008301526120b381611d04565b9050919050565b600060208201905081810360008301526120d381611d44565b9050919050565b600060208201905081810360008301526120f381611d84565b9050919050565b6000602082019050818103600083015261211381611dc4565b9050919050565b6000602082019050818103600083015261213381611e04565b9050919050565b6000602082019050818103600083015261215381611e44565b9050919050565b6000602082019050818103600083015261217381611e84565b9050919050565b6000602082019050818103600083015261219381611ec4565b9050919050565b600060208201905081810360008301526121b381611f04565b9050919050565b600060208201905081810360008301526121d381611f44565b9050919050565b600060208201905081810360008301526121f381611faa565b9050919050565b600060208201905061220f6000830184611fea565b92915050565b600060c08201905061222a6000830189611fea565b818103602083015261223c8188611c8b565b905061224b6040830187611fea565b6122586060830186611fea565b6122656080830185611c5e565b61227260a0830184611c6d565b979650505050505050565b6000604051905081810181811067ffffffffffffffff821117156122a4576122a36125f5565b5b8060405250919050565b600067ffffffffffffffff8211156122c9576122c86125f5565b5b601f19601f8301169050602081019050919050565b600081519050919050565b600082825260208201905092915050565b600061230582612460565b915061231083612460565b9250827fffffffffffffffffffffffffffffffffffffffffffffffffffffffffffffffff0382111561234557612344612539565b5b828201905092915050565b600061235b82612460565b915061236683612460565b92508261237657612375612568565b5b828204905092915050565b600061238c82612460565b915061239783612460565b9250817fffffffffffffffffffffffffffffffffffffffffffffffffffffffffffffffff04831182151516156123d0576123cf612539565b5b828202905092915050565b60006123e682612460565b91506123f183612460565b92508282101561240457612403612539565b5b828203905092915050565b600061241a82612440565b9050919050565b60008115159050919050565b600081905061243b82612635565b919050565b600073ffffffffffffffffffffffffffffffffffffffff82169050919050565b6000819050919050565b60006124758261242d565b9050919050565b82818337600083830152505050565b60005b838110156124a957808201518184015260208101905061248e565b838111156124b8576000848401525b50505050565b600060028204905060018216806124d657607f821691505b602082108114156124ea576124e96125c6565b5b50919050565b60006124fb82612460565b91507fffffffffffffffffffffffffffffffffffffffffffffffffffffffffffffffff82141561252e5761252d612539565b5b600182019050919050565b7f4e487b7100000000000000000000000000000000000000000000000000000000600052601160045260246000fd5b7f4e487b7100000000000000000000000000000000000000000000000000000000600052601260045260246000fd5b7f4e487b7100000000000000000000000000000000000000000000000000000000600052602160045260246000fd5b7f4e487b7100000000000000000000000000000000000000000000000000000000600052602260045260246000fd5b7f4e487b7100000000000000000000000000000000000000000000000000000000600052604160045260246000fd5b6000601f19601f8301169050919050565b6003811061264657612645612597565b5b50565b6126528161240f565b811461265d57600080fd5b50565b61266981612460565b811461267457600080fd5b5056fea264697066735822122092e42956b6adc17690a3fae473fd15e1281eefcf4949f1974f271d9bfcb2473d64736f6c63430008000033",
  "immutableReferences": {},
  "source": "// SPDX-License-Identifier: MIT\npragma solidity ^0.8.0;\n\ncontract LoyaltyPointExchange {\n    address public owner;\n\n    enum Role { None, User, Merchant }\n\n    struct MerchantRequest {\n        address merchantAddress;\n        bool approved;\n    }\n\n    struct Item {\n        uint id;\n        string name;\n        uint priceInEther;\n        uint priceInPoints;\n        address merchant;\n        bool exists;\n    }\n\n    mapping(address => Role) public roles;\n    mapping(address => uint) public loyaltyPoints;\n    mapping(address => uint) public etherBalance;\n    mapping(address => MerchantRequest) public merchantRequests;\n    mapping(uint => Item) public items;\n\n    uint public nextItemId;\n    uint public platformFeePercent = 2; // Optional: Owner can set a fee\n\n    event MerchantRequested(address indexed merchant);\n    event MerchantApproved(address indexed merchant);\n    event UserRegistered(address indexed user);\n    event ItemAdded(uint indexed itemId, string name, address indexed merchant);\n    event ItemPurchased(uint indexed itemId, address indexed buyer, address indexed merchant, string method);\n    event PointsRedeemed(address indexed merchant, uint amount);\n    event PlatformFeeUpdated(uint newFeePercent);\n\n    modifier onlyOwner() {\n        require(msg.sender == owner, \"Only owner can perform this action\");\n        _;\n    }\n\n    modifier onlyMerchant() {\n        require(roles[msg.sender] == Role.Merchant, \"Only merchant allowed\");\n        _;\n    }\n\n    modifier onlyUser() {\n        require(roles[msg.sender] == Role.User, \"Only user allowed\");\n        _;\n    }\n\n    constructor() {\n        owner = msg.sender;\n        roles[msg.sender] = Role.User;\n    }\n\n    function selfRegister() external {\n        require(roles[msg.sender] == Role.None, \"Already registered\");\n        roles[msg.sender] = Role.User;\n        emit UserRegistered(msg.sender);\n    }\n\n    function requestMerchantAccess() external {\n        require(roles[msg.sender] == Role.None, \"Already registered\");\n        merchantRequests[msg.sender] = MerchantRequest(msg.sender, false);\n        emit MerchantRequested(msg.sender);\n    }\n\n    function approveMerchant(address merchant) external onlyOwner {\n        require(!merchantRequests[merchant].approved, \"Already approved\");\n        merchantRequests[merchant].approved = true;\n        roles[merchant] = Role.Merchant;\n        emit MerchantApproved(merchant);\n    }\n\n    function addItem(string memory name, uint priceInEther, uint priceInPoints) external onlyMerchant {\n        items[nextItemId] = Item(nextItemId, name, priceInEther, priceInPoints, msg.sender, true);\n        emit ItemAdded(nextItemId, name, msg.sender);\n        nextItemId++;\n    }\n\n    function purchaseItemWithEther(uint itemId) external payable onlyUser {\n        Item memory item = items[itemId];\n        require(item.exists, \"Item not found\");\n        require(msg.value == item.priceInEther, \"Incorrect Ether value\");\n\n        uint fee = (msg.value * platformFeePercent) / 100;\n        uint amountToMerchant = msg.value - fee;\n\n        payable(item.merchant).transfer(amountToMerchant);\n        etherBalance[owner] += fee;\n\n        emit ItemPurchased(itemId, msg.sender, item.merchant, \"Ether\");\n    }\n\n    function purchaseItemWithPoints(uint itemId) external onlyUser {\n        Item memory item = items[itemId];\n        require(item.exists, \"Item not found\");\n        require(loyaltyPoints[msg.sender] >= item.priceInPoints, \"Insufficient points\");\n\n        loyaltyPoints[msg.sender] -= item.priceInPoints;\n        loyaltyPoints[item.merchant] += item.priceInPoints;\n\n        emit ItemPurchased(itemId, msg.sender, item.merchant, \"Points\");\n    }\n\n    function redeemPointsForEther(uint amount) external onlyMerchant {\n        require(loyaltyPoints[msg.sender] >= amount, \"Insufficient points\");\n\n        // Define a conversion rate: 1 point = 0.001 Ether (for example)\n        uint etherAmount = amount * 1e15; // 0.001 Ether = 1e15 wei\n        require(address(this).balance >= etherAmount, \"Contract lacks Ether\");\n\n        loyaltyPoints[msg.sender] -= amount;\n        payable(msg.sender).transfer(etherAmount);\n\n        emit PointsRedeemed(msg.sender, amount);\n    }\n\n    function updatePlatformFee(uint newFeePercent) external onlyOwner {\n        require(newFeePercent <= 10, \"Fee too high\");\n        platformFeePercent = newFeePercent;\n        emit PlatformFeeUpdated(newFeePercent);\n    }\n\n    receive() external payable {}\n}\n",
  "sourcePath": "/home/sayalijaitapkar/loyalty-point-exchange/contracts/LoyaltyPointExchange.sol",
  "compiler": {
    "name": "solc",
    "version": "0.8.0+commit.c7dfd78e.Emscripten.clang"
  },
  "schemaVersion": "3.4.16",
  "updatedAt": "2025-04-09T14:00:06.040Z",
  "networkType": "ethereum",
  "devdoc": {
    "kind": "dev",
    "methods": {},
    "version": 1
  },
  "userdoc": {
    "kind": "user",
    "methods": {},
    "version": 1
  }
}